{
  "contractName": "HouseTypeManager",
  "abi": [
    {
      "anonymous": false,
      "inputs": [
        {
          "indexed": false,
          "internalType": "uint256",
          "name": "id",
          "type": "uint256"
        },
        {
          "indexed": false,
          "internalType": "string",
          "name": "name",
          "type": "string"
        }
      ],
      "name": "HouseTypeAdded",
      "type": "event"
    },
    {
      "anonymous": false,
      "inputs": [
        {
          "indexed": false,
          "internalType": "uint256",
          "name": "id",
          "type": "uint256"
        }
      ],
      "name": "HouseTypeDeleted",
      "type": "event"
    },
    {
      "anonymous": false,
      "inputs": [
        {
          "indexed": false,
          "internalType": "uint256",
          "name": "id",
          "type": "uint256"
        },
        {
          "indexed": false,
          "internalType": "string",
          "name": "name",
          "type": "string"
        }
      ],
      "name": "HouseTypeUpdated",
      "type": "event"
    },
    {
      "inputs": [
        {
          "internalType": "string",
          "name": "_name",
          "type": "string"
        }
      ],
      "name": "addHouseType",
      "outputs": [],
      "stateMutability": "nonpayable",
      "type": "function"
    },
    {
      "inputs": [
        {
          "internalType": "uint256",
          "name": "_id",
          "type": "uint256"
        },
        {
          "internalType": "string",
          "name": "_name",
          "type": "string"
        }
      ],
      "name": "updateHouseType",
      "outputs": [],
      "stateMutability": "nonpayable",
      "type": "function"
    },
    {
      "inputs": [
        {
          "internalType": "uint256",
          "name": "_id",
          "type": "uint256"
        }
      ],
      "name": "deleteHouseType",
      "outputs": [],
      "stateMutability": "nonpayable",
      "type": "function"
    },
    {
      "inputs": [
        {
          "internalType": "uint256",
          "name": "_id",
          "type": "uint256"
        }
      ],
      "name": "getHouseType",
      "outputs": [
        {
          "internalType": "string",
          "name": "",
          "type": "string"
        }
      ],
      "stateMutability": "view",
      "type": "function"
    },
    {
      "inputs": [],
      "name": "getAllHouseTypes",
      "outputs": [
        {
          "components": [
            {
              "internalType": "uint256",
              "name": "id",
              "type": "uint256"
            },
            {
              "internalType": "string",
              "name": "name",
              "type": "string"
            }
          ],
          "internalType": "struct HouseTypeManager.HouseType[]",
          "name": "",
          "type": "tuple[]"
        }
      ],
      "stateMutability": "view",
      "type": "function"
    }
  ],
  "bytecode": "0x6080604052600160025534801561001557600080fd5b50610eef806100256000396000f3fe608060405234801561001057600080fd5b50600436106100575760003560e01c80631ebed1951461005c57806337c722411461007a578063a714e26d14610096578063becd5fa6146100b2578063dd630a90146100e2575b600080fd5b6100646100fe565b6040516100719190610b93565b60405180910390f35b610094600480360381019061008f91906109a9565b6102ef565b005b6100b060048036038101906100ab919061093f565b6103ba565b005b6100cc60048036038101906100c79190610980565b610490565b6040516100d99190610bb5565b60405180910390f35b6100fc60048036038101906100f79190610980565b61059b565b005b6060600060018054905067ffffffffffffffff811115610147577f4e487b7100000000000000000000000000000000000000000000000000000000600052604160045260246000fd5b60405190808252806020026020018201604052801561018057816020015b61016d6107c5565b8152602001906001900390816101655790505b50905060005b6001805490508110156102e757600080600183815481106101d0577f4e487b7100000000000000000000000000000000000000000000000000000000600052603260045260246000fd5b906000526020600020015481526020019081526020016000206040518060400160405290816000820154815260200160018201805461020e90610d89565b80601f016020809104026020016040519081016040528092919081815260200182805461023a90610d89565b80156102875780601f1061025c57610100808354040283529160200191610287565b820191906000526020600020905b81548152906001019060200180831161026a57829003601f168201915b5050505050815250508282815181106102c9577f4e487b7100000000000000000000000000000000000000000000000000000000600052603260045260246000fd5b602002602001018190525080806102df90610dbb565b915050610186565b508091505090565b6000806000848152602001908152602001600020600101805461031190610d89565b905011610353576040517f08c379a000000000000000000000000000000000000000000000000000000000815260040161034a90610bd7565b60405180910390fd5b80600080848152602001908152602001600020600101908051906020019061037c9291906107df565b507f72d4ac11d5efd430323cd10185dc4adc84b051a95a92a5ea0ef10bfee932317082826040516103ae929190610c12565b60405180910390a15050565b6040518060400160405280600254815260200182815250600080600254815260200190815260200160002060008201518160000155602082015181600101908051906020019061040b9291906107df565b50905050600160025490806001815401808255809150506001900390600052602060002001600090919091909150557f7953aafa13d9858d04e9c031c14c4a49033ca76452cdaf5a2465e3fcc37146c36002548260405161046d929190610c12565b60405180910390a16002600081548092919061048890610dbb565b919050555050565b6060600080600084815260200190815260200160002060010180546104b490610d89565b9050116104f6576040517f08c379a00000000000000000000000000000000000000000000000000000000081526004016104ed90610bd7565b60405180910390fd5b600080838152602001908152602001600020600101805461051690610d89565b80601f016020809104026020016040519081016040528092919081815260200182805461054290610d89565b801561058f5780601f106105645761010080835404028352916020019161058f565b820191906000526020600020905b81548152906001019060200180831161057257829003601f168201915b50505050509050919050565b600080600083815260200190815260200160002060010180546105bd90610d89565b9050116105ff576040517f08c379a00000000000000000000000000000000000000000000000000000000081526004016105f690610bd7565b60405180910390fd5b60008082815260200190815260200160002060008082016000905560018201600061062a9190610865565b505060005b60018054905081101561078a578160018281548110610677577f4e487b7100000000000000000000000000000000000000000000000000000000600052603260045260246000fd5b9060005260206000200154141561077757600180808054905061069a9190610d09565b815481106106d1577f4e487b7100000000000000000000000000000000000000000000000000000000600052603260045260246000fd5b906000526020600020015460018281548110610716577f4e487b7100000000000000000000000000000000000000000000000000000000600052603260045260246000fd5b9060005260206000200181905550600180548061075c577f4e487b7100000000000000000000000000000000000000000000000000000000600052603160045260246000fd5b6001900381819060005260206000200160009055905561078a565b808061078290610dbb565b91505061062f565b507f941f0c6e6120e2ca420f49d28f2489b71030a4f67029ff51e4e10af8a8a83e5e816040516107ba9190610bf7565b60405180910390a150565b604051806040016040528060008152602001606081525090565b8280546107eb90610d89565b90600052602060002090601f01602090048101928261080d5760008555610854565b82601f1061082657805160ff1916838001178555610854565b82800160010185558215610854579182015b82811115610853578251825591602001919060010190610838565b5b50905061086191906108a5565b5090565b50805461087190610d89565b6000825580601f1061088357506108a2565b601f0160209004906000526020600020908101906108a191906108a5565b5b50565b5b808211156108be5760008160009055506001016108a6565b5090565b60006108d56108d084610c73565b610c42565b9050828152602081018484840111156108ed57600080fd5b6108f8848285610d47565b509392505050565b600082601f83011261091157600080fd5b81356109218482602086016108c2565b91505092915050565b60008135905061093981610ea2565b92915050565b60006020828403121561095157600080fd5b600082013567ffffffffffffffff81111561096b57600080fd5b61097784828501610900565b91505092915050565b60006020828403121561099257600080fd5b60006109a08482850161092a565b91505092915050565b600080604083850312156109bc57600080fd5b60006109ca8582860161092a565b925050602083013567ffffffffffffffff8111156109e757600080fd5b6109f385828601610900565b9150509250929050565b6000610a098383610b38565b905092915050565b6000610a1c82610cb3565b610a268185610cd6565b935083602082028501610a3885610ca3565b8060005b85811015610a745784840389528151610a5585826109fd565b9450610a6083610cc9565b925060208a01995050600181019050610a3c565b50829750879550505050505092915050565b6000610a9182610cbe565b610a9b8185610ce7565b9350610aab818560208601610d56565b610ab481610e91565b840191505092915050565b6000610aca82610cbe565b610ad48185610cf8565b9350610ae4818560208601610d56565b610aed81610e91565b840191505092915050565b6000610b05601983610cf8565b91507f486f757365207479706520646f6573206e6f74206578697374000000000000006000830152602082019050919050565b6000604083016000830151610b506000860182610b75565b5060208301518482036020860152610b688282610a86565b9150508091505092915050565b610b7e81610d3d565b82525050565b610b8d81610d3d565b82525050565b60006020820190508181036000830152610bad8184610a11565b905092915050565b60006020820190508181036000830152610bcf8184610abf565b905092915050565b60006020820190508181036000830152610bf081610af8565b9050919050565b6000602082019050610c0c6000830184610b84565b92915050565b6000604082019050610c276000830185610b84565b8181036020830152610c398184610abf565b90509392505050565b6000604051905081810181811067ffffffffffffffff82111715610c6957610c68610e62565b5b8060405250919050565b600067ffffffffffffffff821115610c8e57610c8d610e62565b5b601f19601f8301169050602081019050919050565b6000819050602082019050919050565b600081519050919050565b600081519050919050565b6000602082019050919050565b600082825260208201905092915050565b600082825260208201905092915050565b600082825260208201905092915050565b6000610d1482610d3d565b9150610d1f83610d3d565b925082821015610d3257610d31610e04565b5b828203905092915050565b6000819050919050565b82818337600083830152505050565b60005b83811015610d74578082015181840152602081019050610d59565b83811115610d83576000848401525b50505050565b60006002820490506001821680610da157607f821691505b60208210811415610db557610db4610e33565b5b50919050565b6000610dc682610d3d565b91507fffffffffffffffffffffffffffffffffffffffffffffffffffffffffffffffff821415610df957610df8610e04565b5b600182019050919050565b7f4e487b7100000000000000000000000000000000000000000000000000000000600052601160045260246000fd5b7f4e487b7100000000000000000000000000000000000000000000000000000000600052602260045260246000fd5b7f4e487b7100000000000000000000000000000000000000000000000000000000600052604160045260246000fd5b6000601f19601f8301169050919050565b610eab81610d3d565b8114610eb657600080fd5b5056fea264697066735822122033b08f57fac87ecf1df68f6d50840ec7ca98ee58b524c45774f45b68039c5ace64736f6c63430008000033",
  "immutableReferences": {},
  "source": "// SPDX-License-Identifier: MIT\r\npragma solidity ^0.8.0;\r\n\r\ncontract HouseTypeManager {\r\n    struct HouseType {\r\n        uint256 id;\r\n        string name;\r\n    }\r\n\r\n    mapping(uint256 => HouseType) private houseTypes;\r\n    uint256[] private houseTypeIds;\r\n    uint256 private nextId = 1;\r\n\r\n    event HouseTypeAdded(uint256 id, string name);\r\n    event HouseTypeUpdated(uint256 id, string name);\r\n    event HouseTypeDeleted(uint256 id);\r\n\r\n    function addHouseType(string memory _name) public {\r\n        houseTypes[nextId] = HouseType(nextId, _name);\r\n        houseTypeIds.push(nextId);\r\n        emit HouseTypeAdded(nextId, _name);\r\n        nextId++;\r\n    }\r\n\r\n    function updateHouseType(uint256 _id, string memory _name) public {\r\n        require(bytes(houseTypes[_id].name).length > 0, \"House type does not exist\");\r\n        houseTypes[_id].name = _name;\r\n        emit HouseTypeUpdated(_id, _name);\r\n    }\r\n\r\n    function deleteHouseType(uint256 _id) public {\r\n        require(bytes(houseTypes[_id].name).length > 0, \"House type does not exist\");\r\n        delete houseTypes[_id];\r\n\r\n        for (uint256 i = 0; i < houseTypeIds.length; i++) {\r\n            if (houseTypeIds[i] == _id) {\r\n                houseTypeIds[i] = houseTypeIds[houseTypeIds.length - 1];\r\n                houseTypeIds.pop();\r\n                break;\r\n            }\r\n        }\r\n\r\n        emit HouseTypeDeleted(_id);\r\n    }\r\n\r\n    function getHouseType(uint256 _id) public view returns (string memory) {\r\n        require(bytes(houseTypes[_id].name).length > 0, \"House type does not exist\");\r\n        return houseTypes[_id].name;\r\n    }\r\n\r\n    function getAllHouseTypes() public view returns (HouseType[] memory) {\r\n        HouseType[] memory allHouseTypes = new HouseType[](houseTypeIds.length);\r\n        for (uint256 i = 0; i < houseTypeIds.length; i++) {\r\n            allHouseTypes[i] = houseTypes[houseTypeIds[i]];\r\n        }\r\n        return allHouseTypes;\r\n    }\r\n}\r\n",
  "sourcePath": "D:\\blockchain\\src\\smartContact\\contracts\\houseType.sol",
  "compiler": {
    "name": "solc",
    "version": "0.8.0+commit.c7dfd78e.Emscripten.clang"
  },
  "schemaVersion": "3.4.16",
  "updatedAt": "2025-03-31T07:23:34.522Z",
  "devdoc": {
    "kind": "dev",
    "methods": {},
    "version": 1
  },
  "userdoc": {
    "kind": "user",
    "methods": {},
    "version": 1
  }
}