{
  "contractName": "RentalListing",
  "abi": [
    {
      "anonymous": false,
      "inputs": [
        {
          "indexed": true,
          "internalType": "uint256",
          "name": "rentalId",
          "type": "uint256"
        },
        {
          "indexed": true,
          "internalType": "uint256",
          "name": "userId",
          "type": "uint256"
        },
        {
          "indexed": false,
          "internalType": "string",
          "name": "username",
          "type": "string"
        },
        {
          "indexed": false,
          "internalType": "uint256",
          "name": "price",
          "type": "uint256"
        },
        {
          "indexed": false,
          "internalType": "string",
          "name": "houseType",
          "type": "string"
        }
      ],
      "name": "RentalListed",
      "type": "event"
    },
    {
      "anonymous": false,
      "inputs": [
        {
          "indexed": true,
          "internalType": "uint256",
          "name": "rentalId",
          "type": "uint256"
        },
        {
          "indexed": false,
          "internalType": "enum RentalListing.RentalStatus",
          "name": "status",
          "type": "uint8"
        }
      ],
      "name": "RentalStatusUpdated",
      "type": "event"
    },
    {
      "inputs": [],
      "name": "nextRentalId",
      "outputs": [
        {
          "internalType": "uint256",
          "name": "",
          "type": "uint256"
        }
      ],
      "stateMutability": "view",
      "type": "function"
    },
    {
      "inputs": [
        {
          "internalType": "uint256",
          "name": "",
          "type": "uint256"
        }
      ],
      "name": "rentalToUser",
      "outputs": [
        {
          "internalType": "uint256",
          "name": "",
          "type": "uint256"
        }
      ],
      "stateMutability": "view",
      "type": "function"
    },
    {
      "inputs": [
        {
          "internalType": "uint256",
          "name": "",
          "type": "uint256"
        }
      ],
      "name": "rentals",
      "outputs": [
        {
          "internalType": "uint256",
          "name": "userId",
          "type": "uint256"
        },
        {
          "internalType": "string",
          "name": "username",
          "type": "string"
        },
        {
          "internalType": "uint256",
          "name": "price",
          "type": "uint256"
        },
        {
          "internalType": "string",
          "name": "houseType",
          "type": "string"
        },
        {
          "internalType": "string",
          "name": "addressLocation",
          "type": "string"
        },
        {
          "internalType": "string",
          "name": "contactNumber",
          "type": "string"
        },
        {
          "internalType": "uint8",
          "name": "bedrooms",
          "type": "uint8"
        },
        {
          "internalType": "uint8",
          "name": "bathrooms",
          "type": "uint8"
        },
        {
          "internalType": "uint256",
          "name": "width",
          "type": "uint256"
        },
        {
          "internalType": "uint256",
          "name": "length",
          "type": "uint256"
        },
        {
          "internalType": "string",
          "name": "description",
          "type": "string"
        },
        {
          "internalType": "enum RentalListing.RentalStatus",
          "name": "status",
          "type": "uint8"
        }
      ],
      "stateMutability": "view",
      "type": "function"
    },
    {
      "inputs": [
        {
          "components": [
            {
              "internalType": "uint256",
              "name": "userId",
              "type": "uint256"
            },
            {
              "internalType": "string",
              "name": "username",
              "type": "string"
            },
            {
              "internalType": "uint256",
              "name": "price",
              "type": "uint256"
            },
            {
              "internalType": "string",
              "name": "houseType",
              "type": "string"
            },
            {
              "internalType": "string",
              "name": "addressLocation",
              "type": "string"
            },
            {
              "internalType": "string",
              "name": "contactNumber",
              "type": "string"
            },
            {
              "internalType": "uint8",
              "name": "bedrooms",
              "type": "uint8"
            },
            {
              "internalType": "uint8",
              "name": "bathrooms",
              "type": "uint8"
            },
            {
              "internalType": "uint256",
              "name": "width",
              "type": "uint256"
            },
            {
              "internalType": "uint256",
              "name": "length",
              "type": "uint256"
            },
            {
              "internalType": "string",
              "name": "description",
              "type": "string"
            },
            {
              "internalType": "string[]",
              "name": "imageUrls",
              "type": "string[]"
            }
          ],
          "internalType": "struct RentalListing.RentalInput",
          "name": "input",
          "type": "tuple"
        }
      ],
      "name": "listRental",
      "outputs": [],
      "stateMutability": "nonpayable",
      "type": "function"
    },
    {
      "inputs": [
        {
          "internalType": "uint256",
          "name": "_rentalId",
          "type": "uint256"
        }
      ],
      "name": "getRental",
      "outputs": [
        {
          "components": [
            {
              "internalType": "uint256",
              "name": "userId",
              "type": "uint256"
            },
            {
              "internalType": "string",
              "name": "username",
              "type": "string"
            },
            {
              "internalType": "uint256",
              "name": "price",
              "type": "uint256"
            },
            {
              "internalType": "string",
              "name": "houseType",
              "type": "string"
            },
            {
              "internalType": "string",
              "name": "addressLocation",
              "type": "string"
            },
            {
              "internalType": "string",
              "name": "contactNumber",
              "type": "string"
            },
            {
              "internalType": "uint8",
              "name": "bedrooms",
              "type": "uint8"
            },
            {
              "internalType": "uint8",
              "name": "bathrooms",
              "type": "uint8"
            },
            {
              "internalType": "uint256",
              "name": "width",
              "type": "uint256"
            },
            {
              "internalType": "uint256",
              "name": "length",
              "type": "uint256"
            },
            {
              "internalType": "string",
              "name": "description",
              "type": "string"
            },
            {
              "internalType": "string[]",
              "name": "imageUrls",
              "type": "string[]"
            },
            {
              "internalType": "enum RentalListing.RentalStatus",
              "name": "status",
              "type": "uint8"
            }
          ],
          "internalType": "struct RentalListing.Rental",
          "name": "",
          "type": "tuple"
        }
      ],
      "stateMutability": "view",
      "type": "function"
    },
    {
      "inputs": [],
      "name": "getAllRentals",
      "outputs": [
        {
          "components": [
            {
              "internalType": "uint256",
              "name": "userId",
              "type": "uint256"
            },
            {
              "internalType": "string",
              "name": "username",
              "type": "string"
            },
            {
              "internalType": "uint256",
              "name": "price",
              "type": "uint256"
            },
            {
              "internalType": "string",
              "name": "houseType",
              "type": "string"
            },
            {
              "internalType": "string",
              "name": "addressLocation",
              "type": "string"
            },
            {
              "internalType": "string",
              "name": "contactNumber",
              "type": "string"
            },
            {
              "internalType": "uint8",
              "name": "bedrooms",
              "type": "uint8"
            },
            {
              "internalType": "uint8",
              "name": "bathrooms",
              "type": "uint8"
            },
            {
              "internalType": "uint256",
              "name": "width",
              "type": "uint256"
            },
            {
              "internalType": "uint256",
              "name": "length",
              "type": "uint256"
            },
            {
              "internalType": "string",
              "name": "description",
              "type": "string"
            },
            {
              "internalType": "string[]",
              "name": "imageUrls",
              "type": "string[]"
            },
            {
              "internalType": "enum RentalListing.RentalStatus",
              "name": "status",
              "type": "uint8"
            }
          ],
          "internalType": "struct RentalListing.Rental[]",
          "name": "",
          "type": "tuple[]"
        }
      ],
      "stateMutability": "view",
      "type": "function"
    },
    {
      "inputs": [
        {
          "internalType": "uint256",
          "name": "_rentalId",
          "type": "uint256"
        },
        {
          "internalType": "enum RentalListing.RentalStatus",
          "name": "_status",
          "type": "uint8"
        },
        {
          "internalType": "uint256",
          "name": "_userId",
          "type": "uint256"
        }
      ],
      "name": "updateRentalStatus",
      "outputs": [],
      "stateMutability": "nonpayable",
      "type": "function"
    },
    {
      "inputs": [
        {
          "internalType": "uint256",
          "name": "_rentalId",
          "type": "uint256"
        },
        {
          "internalType": "uint256",
          "name": "_userId",
          "type": "uint256"
        }
      ],
      "name": "deleteRental",
      "outputs": [],
      "stateMutability": "nonpayable",
      "type": "function"
    }
  ],
  "bytecode": "0x608060405234801561001057600080fd5b50612531806100206000396000f3fe608060405234801561001057600080fd5b50600436106100875760003560e01c80636ac2551d1161005b5780636ac2551d14610124578063af94a1d114610142578063c8af69a61461017d578063d6100c8c1461019b57610087565b80622f89ad1461008c5780634b03e6e1146100a85780636487e507146100c4578063652bd29e146100f4575b600080fd5b6100a660048036038101906100a19190611ac9565b6101b7565b005b6100c260048036038101906100bd9190611a10565b6102e8565b005b6100de60048036038101906100d99190611a51565b6105c3565b6040516100eb91906120bf565b60405180910390f35b61010e60048036038101906101099190611a51565b6105db565b60405161011b919061209d565b60405180910390f35b61012c610ae9565b6040516101399190611fdb565b60405180910390f35b61015c60048036038101906101579190611a51565b611091565b6040516101749c9b9a999897969594939291906120da565b60405180910390f35b6101856113c0565b60405161019291906120bf565b60405180910390f35b6101b560048036038101906101b09190611a7a565b6113c6565b005b60005482106101fb576040517f08c379a00000000000000000000000000000000000000000000000000000000081526004016101f29061205d565b60405180910390fd5b600160008381526020019081526020016000206000808201600090556001820160006102279190611506565b600282016000905560038201600061023f9190611506565b60048201600061024f9190611506565b60058201600061025f9190611506565b6006820160006101000a81549060ff02191690556006820160016101000a81549060ff0219169055600782016000905560088201600090556009820160006102a79190611506565b600a820160006102b79190611546565b600b820160006101000a81549060ff0219169055505060026000838152602001908152602001600020600090555050565b604051806101a0016040528082600001518152602001826020015181526020018260400151815260200182606001518152602001826080015181526020018260a0015181526020018260c0015160ff1681526020018260e0015160ff1681526020018261010001518152602001826101200151815260200182610140015181526020018261016001518152602001600060028111156103b0577f4e487b7100000000000000000000000000000000000000000000000000000000600052602160045260246000fd5b81525060016000805481526020019081526020016000206000820151816000015560208201518160010190805190602001906103ed929190611567565b50604082015181600201556060820151816003019080519060200190610414929190611567565b506080820151816004019080519060200190610431929190611567565b5060a082015181600501908051906020019061044e929190611567565b5060c08201518160060160006101000a81548160ff021916908360ff16021790555060e08201518160060160016101000a81548160ff021916908360ff160217905550610100820151816007015561012082015181600801556101408201518160090190805190602001906104c4929190611567565b5061016082015181600a0190805190602001906104e29291906115ed565b5061018082015181600b0160006101000a81548160ff02191690836002811115610535577f4e487b7100000000000000000000000000000000000000000000000000000000600052602160045260246000fd5b0217905550905050806000015160026000805481526020019081526020016000208190555080600001516000547f54fed611c6fa464a298d361d40b9f617ef072c213e731f130bc8a23f5fb144568360200151846040015185606001516040516105a193929190612018565b60405180910390a36000808154809291906105bb90612393565b919050555050565b60026020528060005260406000206000915090505481565b6105e361164d565b6000548210610627576040517f08c379a000000000000000000000000000000000000000000000000000000000815260040161061e9061205d565b60405180910390fd5b60016000838152602001908152602001600020604051806101a00160405290816000820154815260200160018201805461066090612361565b80601f016020809104026020016040519081016040528092919081815260200182805461068c90612361565b80156106d95780601f106106ae576101008083540402835291602001916106d9565b820191906000526020600020905b8154815290600101906020018083116106bc57829003601f168201915b50505050508152602001600282015481526020016003820180546106fc90612361565b80601f016020809104026020016040519081016040528092919081815260200182805461072890612361565b80156107755780601f1061074a57610100808354040283529160200191610775565b820191906000526020600020905b81548152906001019060200180831161075857829003601f168201915b5050505050815260200160048201805461078e90612361565b80601f01602080910402602001604051908101604052809291908181526020018280546107ba90612361565b80156108075780601f106107dc57610100808354040283529160200191610807565b820191906000526020600020905b8154815290600101906020018083116107ea57829003601f168201915b5050505050815260200160058201805461082090612361565b80601f016020809104026020016040519081016040528092919081815260200182805461084c90612361565b80156108995780601f1061086e57610100808354040283529160200191610899565b820191906000526020600020905b81548152906001019060200180831161087c57829003601f168201915b505050505081526020016006820160009054906101000a900460ff1660ff1660ff1681526020016006820160019054906101000a900460ff1660ff1660ff168152602001600782015481526020016008820154815260200160098201805461090090612361565b80601f016020809104026020016040519081016040528092919081815260200182805461092c90612361565b80156109795780601f1061094e57610100808354040283529160200191610979565b820191906000526020600020905b81548152906001019060200180831161095c57829003601f168201915b50505050508152602001600a8201805480602002602001604051908101604052809291908181526020016000905b82821015610a535783829060005260206000200180546109c690612361565b80601f01602080910402602001604051908101604052809291908181526020018280546109f290612361565b8015610a3f5780601f10610a1457610100808354040283529160200191610a3f565b820191906000526020600020905b815481529060010190602001808311610a2257829003601f168201915b5050505050815260200190600101906109a7565b505050508152602001600b820160009054906101000a900460ff166002811115610aa6577f4e487b7100000000000000000000000000000000000000000000000000000000600052602160045260246000fd5b6002811115610ade577f4e487b7100000000000000000000000000000000000000000000000000000000600052602160045260246000fd5b815250509050919050565b60606000805467ffffffffffffffff811115610b2e577f4e487b7100000000000000000000000000000000000000000000000000000000600052604160045260246000fd5b604051908082528060200260200182016040528015610b6757816020015b610b5461164d565b815260200190600190039081610b4c5790505b50905060005b6000548110156110895760016000828152602001908152602001600020604051806101a001604052908160008201548152602001600182018054610bb090612361565b80601f0160208091040260200160405190810160405280929190818152602001828054610bdc90612361565b8015610c295780601f10610bfe57610100808354040283529160200191610c29565b820191906000526020600020905b815481529060010190602001808311610c0c57829003601f168201915b5050505050815260200160028201548152602001600382018054610c4c90612361565b80601f0160208091040260200160405190810160405280929190818152602001828054610c7890612361565b8015610cc55780601f10610c9a57610100808354040283529160200191610cc5565b820191906000526020600020905b815481529060010190602001808311610ca857829003601f168201915b50505050508152602001600482018054610cde90612361565b80601f0160208091040260200160405190810160405280929190818152602001828054610d0a90612361565b8015610d575780601f10610d2c57610100808354040283529160200191610d57565b820191906000526020600020905b815481529060010190602001808311610d3a57829003601f168201915b50505050508152602001600582018054610d7090612361565b80601f0160208091040260200160405190810160405280929190818152602001828054610d9c90612361565b8015610de95780601f10610dbe57610100808354040283529160200191610de9565b820191906000526020600020905b815481529060010190602001808311610dcc57829003601f168201915b505050505081526020016006820160009054906101000a900460ff1660ff1660ff1681526020016006820160019054906101000a900460ff1660ff1660ff1681526020016007820154815260200160088201548152602001600982018054610e5090612361565b80601f0160208091040260200160405190810160405280929190818152602001828054610e7c90612361565b8015610ec95780601f10610e9e57610100808354040283529160200191610ec9565b820191906000526020600020905b815481529060010190602001808311610eac57829003601f168201915b50505050508152602001600a8201805480602002602001604051908101604052809291908181526020016000905b82821015610fa3578382906000526020600020018054610f1690612361565b80601f0160208091040260200160405190810160405280929190818152602001828054610f4290612361565b8015610f8f5780601f10610f6457610100808354040283529160200191610f8f565b820191906000526020600020905b815481529060010190602001808311610f7257829003601f168201915b505050505081526020019060010190610ef7565b505050508152602001600b820160009054906101000a900460ff166002811115610ff6577f4e487b7100000000000000000000000000000000000000000000000000000000600052602160045260246000fd5b600281111561102e577f4e487b7100000000000000000000000000000000000000000000000000000000600052602160045260246000fd5b8152505082828151811061106b577f4e487b7100000000000000000000000000000000000000000000000000000000600052603260045260246000fd5b6020026020010181905250808061108190612393565b915050610b6d565b508091505090565b60016020528060005260406000206000915090508060000154908060010180546110ba90612361565b80601f01602080910402602001604051908101604052809291908181526020018280546110e690612361565b80156111335780601f1061110857610100808354040283529160200191611133565b820191906000526020600020905b81548152906001019060200180831161111657829003601f168201915b50505050509080600201549080600301805461114e90612361565b80601f016020809104026020016040519081016040528092919081815260200182805461117a90612361565b80156111c75780601f1061119c576101008083540402835291602001916111c7565b820191906000526020600020905b8154815290600101906020018083116111aa57829003601f168201915b5050505050908060040180546111dc90612361565b80601f016020809104026020016040519081016040528092919081815260200182805461120890612361565b80156112555780601f1061122a57610100808354040283529160200191611255565b820191906000526020600020905b81548152906001019060200180831161123857829003601f168201915b50505050509080600501805461126a90612361565b80601f016020809104026020016040519081016040528092919081815260200182805461129690612361565b80156112e35780601f106112b8576101008083540402835291602001916112e3565b820191906000526020600020905b8154815290600101906020018083116112c657829003601f168201915b5050505050908060060160009054906101000a900460ff16908060060160019054906101000a900460ff169080600701549080600801549080600901805461132a90612361565b80601f016020809104026020016040519081016040528092919081815260200182805461135690612361565b80156113a35780601f10611378576101008083540402835291602001916113a3565b820191906000526020600020905b81548152906001019060200180831161138657829003601f168201915b50505050509080600b0160009054906101000a900460ff1690508c565b60005481565b600054831061140a576040517f08c379a00000000000000000000000000000000000000000000000000000000081526004016114019061205d565b60405180910390fd5b6002600084815260200190815260200160002054811461145f576040517f08c379a00000000000000000000000000000000000000000000000000000000081526004016114569061207d565b60405180910390fd5b60006001600085815260200190815260200160002090508281600b0160006101000a81548160ff021916908360028111156114c3577f4e487b7100000000000000000000000000000000000000000000000000000000600052602160045260246000fd5b0217905550837f9df56f80f9906655edf44459e2b10c4e61997bc962d3df26818d23baf945f225846040516114f89190611ffd565b60405180910390a250505050565b50805461151290612361565b6000825580601f106115245750611543565b601f01602090049060005260206000209081019061154291906116f3565b5b50565b50805460008255906000526020600020908101906115649190611710565b50565b82805461157390612361565b90600052602060002090601f01602090048101928261159557600085556115dc565b82601f106115ae57805160ff19168380011785556115dc565b828001600101855582156115dc579182015b828111156115db5782518255916020019190600101906115c0565b5b5090506115e991906116f3565b5090565b82805482825590600052602060002090810192821561163c579160200282015b8281111561163b57825182908051906020019061162b929190611567565b509160200191906001019061160d565b5b5090506116499190611710565b5090565b604051806101a00160405280600081526020016060815260200160008152602001606081526020016060815260200160608152602001600060ff168152602001600060ff16815260200160008152602001600081526020016060815260200160608152602001600060028111156116ed577f4e487b7100000000000000000000000000000000000000000000000000000000600052602160045260246000fd5b81525090565b5b8082111561170c5760008160009055506001016116f4565b5090565b5b8082111561173057600081816117279190611506565b50600101611711565b5090565b6000611747611742846121e8565b6121b7565b9050808382526020820190508260005b85811015611787578135850161176d888261180e565b845260208401935060208301925050600181019050611757565b5050509392505050565b60006117a461179f84612214565b6121b7565b9050828152602081018484840111156117bc57600080fd5b6117c784828561231f565b509392505050565b600082601f8301126117e057600080fd5b81356117f0848260208601611734565b91505092915050565b600081359050611808816124bd565b92915050565b600082601f83011261181f57600080fd5b813561182f848260208601611791565b91505092915050565b6000610180828403121561184b57600080fd5b6118566101806121b7565b90506000611866848285016119e6565b600083015250602082013567ffffffffffffffff81111561188657600080fd5b6118928482850161180e565b60208301525060406118a6848285016119e6565b604083015250606082013567ffffffffffffffff8111156118c657600080fd5b6118d28482850161180e565b606083015250608082013567ffffffffffffffff8111156118f257600080fd5b6118fe8482850161180e565b60808301525060a082013567ffffffffffffffff81111561191e57600080fd5b61192a8482850161180e565b60a08301525060c061193e848285016119fb565b60c08301525060e0611952848285016119fb565b60e083015250610100611967848285016119e6565b6101008301525061012061197d848285016119e6565b6101208301525061014082013567ffffffffffffffff81111561199f57600080fd5b6119ab8482850161180e565b6101408301525061016082013567ffffffffffffffff8111156119cd57600080fd5b6119d9848285016117cf565b6101608301525092915050565b6000813590506119f5816124cd565b92915050565b600081359050611a0a816124e4565b92915050565b600060208284031215611a2257600080fd5b600082013567ffffffffffffffff811115611a3c57600080fd5b611a4884828501611838565b91505092915050565b600060208284031215611a6357600080fd5b6000611a71848285016119e6565b91505092915050565b600080600060608486031215611a8f57600080fd5b6000611a9d868287016119e6565b9350506020611aae868287016117f9565b9250506040611abf868287016119e6565b9150509250925092565b60008060408385031215611adc57600080fd5b6000611aea858286016119e6565b9250506020611afb858286016119e6565b9150509250929050565b6000611b118383611c35565b905092915050565b6000611b258383611d27565b905092915050565b6000611b3882612264565b611b42818561229f565b935083602082028501611b5485612244565b8060005b85811015611b905784840389528151611b718582611b05565b9450611b7c83612285565b925060208a01995050600181019050611b58565b50829750879550505050505092915050565b6000611bad8261226f565b611bb781856122b0565b935083602082028501611bc985612254565b8060005b85811015611c055784840389528151611be68582611b19565b9450611bf183612292565b925060208a01995050600181019050611bcd565b50829750879550505050505092915050565b611c208161230d565b82525050565b611c2f8161230d565b82525050565b6000611c408261227a565b611c4a81856122c1565b9350611c5a81856020860161232e565b611c6381612498565b840191505092915050565b6000611c798261227a565b611c8381856122d2565b9350611c9381856020860161232e565b611c9c81612498565b840191505092915050565b6000611cb46011836122d2565b91507f496e76616c69642072656e74616c2049440000000000000000000000000000006000830152602082019050919050565b6000611cf46020836122d2565b91507f4f6e6c7920746865206f776e65722063616e20757064617465207374617475736000830152602082019050919050565b60006101a083016000830151611d406000860182611f9f565b5060208301518482036020860152611d588282611c35565b9150506040830151611d6d6040860182611f9f565b5060608301518482036060860152611d858282611c35565b91505060808301518482036080860152611d9f8282611c35565b91505060a083015184820360a0860152611db98282611c35565b91505060c0830151611dce60c0860182611fbd565b5060e0830151611de160e0860182611fbd565b50610100830151611df6610100860182611f9f565b50610120830151611e0b610120860182611f9f565b50610140830151848203610140860152611e258282611c35565b915050610160830151848203610160860152611e418282611b2d565b915050610180830151611e58610180860182611c17565b508091505092915050565b60006101a083016000830151611e7c6000860182611f9f565b5060208301518482036020860152611e948282611c35565b9150506040830151611ea96040860182611f9f565b5060608301518482036060860152611ec18282611c35565b91505060808301518482036080860152611edb8282611c35565b91505060a083015184820360a0860152611ef58282611c35565b91505060c0830151611f0a60c0860182611fbd565b5060e0830151611f1d60e0860182611fbd565b50610100830151611f32610100860182611f9f565b50610120830151611f47610120860182611f9f565b50610140830151848203610140860152611f618282611c35565b915050610160830151848203610160860152611f7d8282611b2d565b915050610180830151611f94610180860182611c17565b508091505092915050565b611fa8816122f6565b82525050565b611fb7816122f6565b82525050565b611fc681612300565b82525050565b611fd581612300565b82525050565b60006020820190508181036000830152611ff58184611ba2565b905092915050565b60006020820190506120126000830184611c26565b92915050565b600060608201905081810360008301526120328186611c6e565b90506120416020830185611fae565b81810360408301526120538184611c6e565b9050949350505050565b6000602082019050818103600083015261207681611ca7565b9050919050565b6000602082019050818103600083015261209681611ce7565b9050919050565b600060208201905081810360008301526120b78184611e63565b905092915050565b60006020820190506120d46000830184611fae565b92915050565b6000610180820190506120f0600083018f611fae565b8181036020830152612102818e611c6e565b9050612111604083018d611fae565b8181036060830152612123818c611c6e565b90508181036080830152612137818b611c6e565b905081810360a083015261214b818a611c6e565b905061215a60c0830189611fcc565b61216760e0830188611fcc565b612175610100830187611fae565b612183610120830186611fae565b8181036101408301526121968185611c6e565b90506121a6610160830184611c26565b9d9c50505050505050505050505050565b6000604051905081810181811067ffffffffffffffff821117156121de576121dd612469565b5b8060405250919050565b600067ffffffffffffffff82111561220357612202612469565b5b602082029050602081019050919050565b600067ffffffffffffffff82111561222f5761222e612469565b5b601f19601f8301169050602081019050919050565b6000819050602082019050919050565b6000819050602082019050919050565b600081519050919050565b600081519050919050565b600081519050919050565b6000602082019050919050565b6000602082019050919050565b600082825260208201905092915050565b600082825260208201905092915050565b600082825260208201905092915050565b600082825260208201905092915050565b60008190506122f1826124a9565b919050565b6000819050919050565b600060ff82169050919050565b6000612318826122e3565b9050919050565b82818337600083830152505050565b60005b8381101561234c578082015181840152602081019050612331565b8381111561235b576000848401525b50505050565b6000600282049050600182168061237957607f821691505b6020821081141561238d5761238c61243a565b5b50919050565b600061239e826122f6565b91507fffffffffffffffffffffffffffffffffffffffffffffffffffffffffffffffff8214156123d1576123d06123dc565b5b600182019050919050565b7f4e487b7100000000000000000000000000000000000000000000000000000000600052601160045260246000fd5b7f4e487b7100000000000000000000000000000000000000000000000000000000600052602160045260246000fd5b7f4e487b7100000000000000000000000000000000000000000000000000000000600052602260045260246000fd5b7f4e487b7100000000000000000000000000000000000000000000000000000000600052604160045260246000fd5b6000601f19601f8301169050919050565b600381106124ba576124b961240b565b5b50565b600381106124ca57600080fd5b50565b6124d6816122f6565b81146124e157600080fd5b50565b6124ed81612300565b81146124f857600080fd5b5056fea26469706673582212202a4ea9da9900c853ef86b5ef034b763e2dd50df73b6df51b449540a46115aa5c64736f6c63430008000033",
  "immutableReferences": {},
  "source": "// SPDX-License-Identifier: MIT\r\npragma solidity ^0.8.0;\r\n\r\ncontract RentalListing {\r\n    enum RentalStatus {\r\n        Pending,\r\n        Available,\r\n        Rented\r\n    }\r\n\r\n    struct Rental {\r\n        uint256 userId;\r\n        string username;\r\n        uint256 price;\r\n        string houseType;\r\n        string addressLocation;\r\n        string contactNumber;\r\n        uint8 bedrooms;\r\n        uint8 bathrooms;\r\n        uint256 width;\r\n        uint256 length;\r\n        string description;\r\n        string[] imageUrls;\r\n        RentalStatus status;\r\n    }\r\n\r\n    struct RentalInput {\r\n        uint256 userId;\r\n        string username;\r\n        uint256 price;\r\n        string houseType;\r\n        string addressLocation;\r\n        string contactNumber;\r\n        uint8 bedrooms;\r\n        uint8 bathrooms;\r\n        uint256 width;\r\n        uint256 length;\r\n        string description;\r\n        string[] imageUrls;\r\n    }\r\n\r\n    uint256 public nextRentalId;\r\n    mapping(uint256 => Rental) public rentals;\r\n    mapping(uint256 => uint256) public rentalToUser;\r\n\r\n    event RentalListed(\r\n        uint256 indexed rentalId,\r\n        uint256 indexed userId,\r\n        string username,\r\n        uint256 price,\r\n        string houseType\r\n    );\r\n\r\n    event RentalStatusUpdated(uint256 indexed rentalId, RentalStatus status);\r\n\r\n    function listRental(RentalInput memory input) public {\r\n        rentals[nextRentalId] = Rental({\r\n            userId: input.userId,\r\n            username: input.username,\r\n            price: input.price,\r\n            houseType: input.houseType,\r\n            addressLocation: input.addressLocation,\r\n            contactNumber: input.contactNumber,\r\n            bedrooms: input.bedrooms,\r\n            bathrooms: input.bathrooms,\r\n            width: input.width,\r\n            length: input.length,\r\n            description: input.description,\r\n            imageUrls: input.imageUrls,\r\n            status: RentalStatus.Pending\r\n        });\r\n\r\n        rentalToUser[nextRentalId] = input.userId;\r\n        emit RentalListed(\r\n            nextRentalId,\r\n            input.userId,\r\n            input.username,\r\n            input.price,\r\n            input.houseType\r\n        );\r\n        nextRentalId++;\r\n    }\r\n\r\n    function getRental(uint256 _rentalId) public view returns (Rental memory) {\r\n        require(_rentalId < nextRentalId, \"Invalid rental ID\");\r\n        return rentals[_rentalId];\r\n    }\r\n\r\n    function getAllRentals() public view returns (Rental[] memory) {\r\n        Rental[] memory allRentals = new Rental[](nextRentalId);\r\n        for (uint256 i = 0; i < nextRentalId; i++) {\r\n            allRentals[i] = rentals[i];\r\n        }\r\n        return allRentals;\r\n    }\r\n\r\n    function updateRentalStatus(\r\n        uint256 _rentalId,\r\n        RentalStatus _status,\r\n        uint256 _userId\r\n    ) public {\r\n        require(_rentalId < nextRentalId, \"Invalid rental ID\");\r\n        require(\r\n            _userId == rentalToUser[_rentalId],\r\n            \"Only the owner can update status\"\r\n        );\r\n\r\n        Rental storage rental = rentals[_rentalId];\r\n        rental.status = _status;\r\n        emit RentalStatusUpdated(_rentalId, _status);\r\n    }\r\n\r\n    function deleteRental(uint256 _rentalId, uint256 _userId) public {\r\n        require(_rentalId < nextRentalId, \"Invalid rental ID\");\r\n\r\n        delete rentals[_rentalId];\r\n        delete rentalToUser[_rentalId];\r\n    }\r\n}\r\n",
  "sourcePath": "D:\\blockchain\\src\\smartContact\\contracts\\postHouse.sol",
  "compiler": {
    "name": "solc",
    "version": "0.8.0+commit.c7dfd78e.Emscripten.clang"
  },
  "schemaVersion": "3.4.16",
  "updatedAt": "2025-03-31T07:23:34.528Z",
  "devdoc": {
    "kind": "dev",
    "methods": {},
    "version": 1
  },
  "userdoc": {
    "kind": "user",
    "methods": {},
    "version": 1
  }
}