{
  "contractName": "RentalContract",
  "abi": [
    {
      "anonymous": false,
      "inputs": [
        {
          "indexed": true,
          "internalType": "uint256",
          "name": "rentalId",
          "type": "uint256"
        },
        {
          "indexed": false,
          "internalType": "string",
          "name": "cccd",
          "type": "string"
        },
        {
          "indexed": false,
          "internalType": "string",
          "name": "phoneNumber",
          "type": "string"
        },
        {
          "indexed": false,
          "internalType": "string",
          "name": "name",
          "type": "string"
        },
        {
          "indexed": false,
          "internalType": "address",
          "name": "tenantAddress",
          "type": "address"
        }
      ],
      "name": "RentalContractCreated",
      "type": "event"
    },
    {
      "anonymous": false,
      "inputs": [
        {
          "indexed": true,
          "internalType": "uint256",
          "name": "rentalId",
          "type": "uint256"
        }
      ],
      "name": "RentalContractDeleted",
      "type": "event"
    },
    {
      "inputs": [
        {
          "internalType": "uint256",
          "name": "",
          "type": "uint256"
        }
      ],
      "name": "isRentalContracted",
      "outputs": [
        {
          "internalType": "bool",
          "name": "",
          "type": "bool"
        }
      ],
      "stateMutability": "view",
      "type": "function",
      "constant": true
    },
    {
      "inputs": [
        {
          "internalType": "uint256",
          "name": "",
          "type": "uint256"
        }
      ],
      "name": "rentalContracts",
      "outputs": [
        {
          "internalType": "uint256",
          "name": "rentalId",
          "type": "uint256"
        },
        {
          "internalType": "string",
          "name": "cccd",
          "type": "string"
        },
        {
          "internalType": "string",
          "name": "phoneNumber",
          "type": "string"
        },
        {
          "internalType": "string",
          "name": "name",
          "type": "string"
        },
        {
          "internalType": "address",
          "name": "tenantAddress",
          "type": "address"
        }
      ],
      "stateMutability": "view",
      "type": "function",
      "constant": true
    },
    {
      "inputs": [
        {
          "internalType": "uint256",
          "name": "_rentalId",
          "type": "uint256"
        },
        {
          "internalType": "string",
          "name": "_cccd",
          "type": "string"
        },
        {
          "internalType": "string",
          "name": "_phoneNumber",
          "type": "string"
        },
        {
          "internalType": "string",
          "name": "_name",
          "type": "string"
        }
      ],
      "name": "registerTenant",
      "outputs": [],
      "stateMutability": "nonpayable",
      "type": "function"
    },
    {
      "inputs": [
        {
          "internalType": "uint256",
          "name": "_rentalId",
          "type": "uint256"
        }
      ],
      "name": "getRentalContract",
      "outputs": [
        {
          "components": [
            {
              "internalType": "uint256",
              "name": "rentalId",
              "type": "uint256"
            },
            {
              "internalType": "string",
              "name": "cccd",
              "type": "string"
            },
            {
              "internalType": "string",
              "name": "phoneNumber",
              "type": "string"
            },
            {
              "internalType": "string",
              "name": "name",
              "type": "string"
            },
            {
              "internalType": "address",
              "name": "tenantAddress",
              "type": "address"
            }
          ],
          "internalType": "struct RentalContract.Tenant",
          "name": "",
          "type": "tuple"
        }
      ],
      "stateMutability": "view",
      "type": "function",
      "constant": true
    },
    {
      "inputs": [
        {
          "internalType": "uint256",
          "name": "_rentalId",
          "type": "uint256"
        }
      ],
      "name": "deleteRentalContract",
      "outputs": [],
      "stateMutability": "nonpayable",
      "type": "function"
    }
  ],
  "bytecode": "0x608060405234801561001057600080fd5b506111c6806100206000396000f3fe608060405234801561001057600080fd5b50600436106100575760003560e01c806353da02061461005c578063664851c014610090578063a110adbe146100c0578063a4cb3ed8146100dc578063bee68d43146100f8575b600080fd5b61007660048036038101906100719190610b1a565b610128565b604051610087959493929190610f58565b60405180910390f35b6100aa60048036038101906100a59190610b1a565b610316565b6040516100b79190610e61565b60405180910390f35b6100da60048036038101906100d59190610b1a565b610336565b005b6100f660048036038101906100f19190610b43565b610509565b005b610112600480360381019061010d9190610b1a565b6106d3565b60405161011f9190610f36565b60405180910390f35b6000602052806000526040600020600091509050806000015490806001018054610151906110d8565b80601f016020809104026020016040519081016040528092919081815260200182805461017d906110d8565b80156101ca5780601f1061019f576101008083540402835291602001916101ca565b820191906000526020600020905b8154815290600101906020018083116101ad57829003601f168201915b5050505050908060020180546101df906110d8565b80601f016020809104026020016040519081016040528092919081815260200182805461020b906110d8565b80156102585780601f1061022d57610100808354040283529160200191610258565b820191906000526020600020905b81548152906001019060200180831161023b57829003601f168201915b50505050509080600301805461026d906110d8565b80601f0160208091040260200160405190810160405280929190818152602001828054610299906110d8565b80156102e65780601f106102bb576101008083540402835291602001916102e6565b820191906000526020600020905b8154815290600101906020018083116102c957829003601f168201915b5050505050908060040160009054906101000a900473ffffffffffffffffffffffffffffffffffffffff16905085565b60016020528060005260406000206000915054906101000a900460ff1681565b6001600082815260200190815260200160002060009054906101000a900460ff16610396576040517f08c379a000000000000000000000000000000000000000000000000000000000815260040161038d90610f16565b60405180910390fd5b3373ffffffffffffffffffffffffffffffffffffffff1660008083815260200190815260200160002060040160009054906101000a900473ffffffffffffffffffffffffffffffffffffffff1673ffffffffffffffffffffffffffffffffffffffff1614610439576040517f08c379a000000000000000000000000000000000000000000000000000000000815260040161043090610ed6565b60405180910390fd5b6000808281526020019081526020016000206000808201600090556001820160006104649190610975565b6002820160006104749190610975565b6003820160006104849190610975565b6004820160006101000a81549073ffffffffffffffffffffffffffffffffffffffff0219169055505060006001600083815260200190815260200160002060006101000a81548160ff021916908315150217905550807f75ffd24b0e2644787970208465552a60c9fd33b29705f27a8fe91aae89bd7e6560405160405180910390a250565b6001600085815260200190815260200160002060009054906101000a900460ff161561056a576040517f08c379a000000000000000000000000000000000000000000000000000000000815260040161056190610ef6565b60405180910390fd5b6040518060a001604052808581526020018481526020018381526020018281526020013373ffffffffffffffffffffffffffffffffffffffff168152506000808681526020019081526020016000206000820151816000015560208201518160010190805190602001906105df9291906109b5565b5060408201518160020190805190602001906105fc9291906109b5565b5060608201518160030190805190602001906106199291906109b5565b5060808201518160040160006101000a81548173ffffffffffffffffffffffffffffffffffffffff021916908373ffffffffffffffffffffffffffffffffffffffff160217905550905050600180600086815260200190815260200160002060006101000a81548160ff021916908315150217905550837f20aeeded804193a12278d1e643cfd5d711e9d5f0eeb9f6bdbd6a3f434f289c5e848484336040516106c59493929190610e7c565b60405180910390a250505050565b6106db610a3b565b6001600083815260200190815260200160002060009054906101000a900460ff1661073b576040517f08c379a000000000000000000000000000000000000000000000000000000000815260040161073290610f16565b60405180910390fd5b6000808381526020019081526020016000206040518060a001604052908160008201548152602001600182018054610772906110d8565b80601f016020809104026020016040519081016040528092919081815260200182805461079e906110d8565b80156107eb5780601f106107c0576101008083540402835291602001916107eb565b820191906000526020600020905b8154815290600101906020018083116107ce57829003601f168201915b50505050508152602001600282018054610804906110d8565b80601f0160208091040260200160405190810160405280929190818152602001828054610830906110d8565b801561087d5780601f106108525761010080835404028352916020019161087d565b820191906000526020600020905b81548152906001019060200180831161086057829003601f168201915b50505050508152602001600382018054610896906110d8565b80601f01602080910402602001604051908101604052809291908181526020018280546108c2906110d8565b801561090f5780601f106108e45761010080835404028352916020019161090f565b820191906000526020600020905b8154815290600101906020018083116108f257829003601f168201915b505050505081526020016004820160009054906101000a900473ffffffffffffffffffffffffffffffffffffffff1673ffffffffffffffffffffffffffffffffffffffff1673ffffffffffffffffffffffffffffffffffffffff16815250509050919050565b508054610981906110d8565b6000825580601f1061099357506109b2565b601f0160209004906000526020600020908101906109b19190610a80565b5b50565b8280546109c1906110d8565b90600052602060002090601f0160209004810192826109e35760008555610a2a565b82601f106109fc57805160ff1916838001178555610a2a565b82800160010185558215610a2a579182015b82811115610a29578251825591602001919060010190610a0e565b5b509050610a379190610a80565b5090565b6040518060a0016040528060008152602001606081526020016060815260200160608152602001600073ffffffffffffffffffffffffffffffffffffffff1681525090565b5b80821115610a99576000816000905550600101610a81565b5090565b6000610ab0610aab84610ff1565b610fc0565b905082815260208101848484011115610ac857600080fd5b610ad3848285611096565b509392505050565b600082601f830112610aec57600080fd5b8135610afc848260208601610a9d565b91505092915050565b600081359050610b1481611179565b92915050565b600060208284031215610b2c57600080fd5b6000610b3a84828501610b05565b91505092915050565b60008060008060808587031215610b5957600080fd5b6000610b6787828801610b05565b945050602085013567ffffffffffffffff811115610b8457600080fd5b610b9087828801610adb565b935050604085013567ffffffffffffffff811115610bad57600080fd5b610bb987828801610adb565b925050606085013567ffffffffffffffff811115610bd657600080fd5b610be287828801610adb565b91505092959194509250565b610bf78161104e565b82525050565b610c068161104e565b82525050565b610c1581611060565b82525050565b6000610c2682611021565b610c30818561102c565b9350610c408185602086016110a5565b610c4981611168565b840191505092915050565b6000610c5f82611021565b610c69818561103d565b9350610c798185602086016110a5565b610c8281611168565b840191505092915050565b6000610c9a60288361103d565b91507f4f6e6c79207468652074656e616e742063616e2064656c65746520746869732060008301527f636f6e74726163740000000000000000000000000000000000000000000000006020830152604082019050919050565b6000610d0060298361103d565b91507f436f6e747261637420616c72656164792065786973747320666f72207468697360008301527f2072656e74616c496400000000000000000000000000000000000000000000006020830152604082019050919050565b6000610d6660248361103d565b91507f4e6f20636f6e74726163742065786973747320666f7220746869732072656e7460008301527f616c4964000000000000000000000000000000000000000000000000000000006020830152604082019050919050565b600060a083016000830151610dd76000860182610e43565b5060208301518482036020860152610def8282610c1b565b91505060408301518482036040860152610e098282610c1b565b91505060608301518482036060860152610e238282610c1b565b9150506080830151610e386080860182610bee565b508091505092915050565b610e4c8161108c565b82525050565b610e5b8161108c565b82525050565b6000602082019050610e766000830184610c0c565b92915050565b60006080820190508181036000830152610e968187610c54565b90508181036020830152610eaa8186610c54565b90508181036040830152610ebe8185610c54565b9050610ecd6060830184610bfd565b95945050505050565b60006020820190508181036000830152610eef81610c8d565b9050919050565b60006020820190508181036000830152610f0f81610cf3565b9050919050565b60006020820190508181036000830152610f2f81610d59565b9050919050565b60006020820190508181036000830152610f508184610dbf565b905092915050565b600060a082019050610f6d6000830188610e52565b8181036020830152610f7f8187610c54565b90508181036040830152610f938186610c54565b90508181036060830152610fa78185610c54565b9050610fb66080830184610bfd565b9695505050505050565b6000604051905081810181811067ffffffffffffffff82111715610fe757610fe6611139565b5b8060405250919050565b600067ffffffffffffffff82111561100c5761100b611139565b5b601f19601f8301169050602081019050919050565b600081519050919050565b600082825260208201905092915050565b600082825260208201905092915050565b60006110598261106c565b9050919050565b60008115159050919050565b600073ffffffffffffffffffffffffffffffffffffffff82169050919050565b6000819050919050565b82818337600083830152505050565b60005b838110156110c35780820151818401526020810190506110a8565b838111156110d2576000848401525b50505050565b600060028204905060018216806110f057607f821691505b602082108114156111045761110361110a565b5b50919050565b7f4e487b7100000000000000000000000000000000000000000000000000000000600052602260045260246000fd5b7f4e487b7100000000000000000000000000000000000000000000000000000000600052604160045260246000fd5b6000601f19601f8301169050919050565b6111828161108c565b811461118d57600080fd5b5056fea2646970667358221220f25775d4b147c62042be857eea9112c32e7d4c9adaa388a15e44b774e51b571764736f6c63430008000033",
  "immutableReferences": {},
  "source": "// SPDX-License-Identifier: MIT\r\npragma solidity ^0.8.0;\r\n\r\ncontract RentalContract {\r\n    struct Tenant {\r\n        uint256 rentalId;\r\n        string cccd;\r\n        string phoneNumber;\r\n        string name;\r\n        address tenantAddress;\r\n    }\r\n\r\n    mapping(uint256 => Tenant) public rentalContracts;\r\n    mapping(uint256 => bool) public isRentalContracted;\r\n\r\n    event RentalContractCreated(\r\n        uint256 indexed rentalId,\r\n        string cccd,\r\n        string phoneNumber,\r\n        string name,\r\n        address tenantAddress\r\n    );\r\n\r\n    event RentalContractDeleted(uint256 indexed rentalId);\r\n    \r\n    function registerTenant(\r\n        uint256 _rentalId,\r\n        string memory _cccd,\r\n        string memory _phoneNumber,\r\n        string memory _name\r\n    ) public {\r\n        require(\r\n            !isRentalContracted[_rentalId],\r\n            \"Contract already exists for this rentalId\"\r\n        );\r\n\r\n        rentalContracts[_rentalId] = Tenant({\r\n            rentalId: _rentalId,\r\n            cccd: _cccd,\r\n            phoneNumber: _phoneNumber,\r\n            name: _name,\r\n            tenantAddress: msg.sender\r\n        });\r\n\r\n        isRentalContracted[_rentalId] = true;\r\n\r\n        emit RentalContractCreated(\r\n            _rentalId,\r\n            _cccd,\r\n            _phoneNumber,\r\n            _name,\r\n            msg.sender\r\n        );\r\n    }\r\n\r\n    function getRentalContract(\r\n        uint256 _rentalId\r\n    ) public view returns (Tenant memory) {\r\n        require(\r\n            isRentalContracted[_rentalId],\r\n            \"No contract exists for this rentalId\"\r\n        );\r\n        return rentalContracts[_rentalId];\r\n    }\r\n\r\n    function deleteRentalContract(uint256 _rentalId) public {\r\n        require(\r\n            isRentalContracted[_rentalId],\r\n            \"No contract exists for this rentalId\"\r\n        );\r\n        require(\r\n            rentalContracts[_rentalId].tenantAddress == msg.sender,\r\n            \"Only the tenant can delete this contract\"\r\n        );\r\n\r\n        delete rentalContracts[_rentalId];\r\n        isRentalContracted[_rentalId] = false;\r\n\r\n        emit RentalContractDeleted(_rentalId);\r\n    }\r\n}\r\n",
  "sourcePath": "D:\\blockchain\\src\\smartContact\\contracts\\rentalContact.sol",
  "compiler": {
    "name": "solc",
    "version": "0.8.0+commit.c7dfd78e.Emscripten.clang"
  },
  "schemaVersion": "3.4.16",
  "updatedAt": "2025-03-31T07:24:02.187Z",
  "networkType": "ethereum",
  "devdoc": {
    "kind": "dev",
    "methods": {},
    "version": 1
  },
  "userdoc": {
    "kind": "user",
    "methods": {},
    "version": 1
  }
}